:100000000C949B000C94C3000C94C3000C94C3008C
:100010000C94C3000C94C3000C94C3000C94C30054
:100020000C94C3000C94C3000C94C3000C940806F9
:100030000C94C3000C94C3000C94C3000C94C30034
:100040000C9466030C94C3000C94C8010C94A20198
:100050000C94C3000C94C3000C94C3000C94C30014
:100060000C94C9060C94C300036EDB363D9A999933
:10007000993DABAAAA2A3E000000803F084AD73B20
:100080003BCE016E84BCBFFDC12F3D6C74319ABD67
:1000900056833DDA3D00C77F11BED9E4BB4C3E918B
:1000A0006BAAAABE000000803F072C7AA5BA6CC5D7
:1000B00090DA3B9365FC8BBC53F810FD3C56928361
:1000C0004DBD879D3AB63DCBC9BF5BBE73DA0FC944
:1000D0003F000001020304051112131415160A0B48
:1000E0000C0D0E0F000000080002010000030407C1
:1000F00000000000000000000000000025002800B3
:100100002B0000000000240027002A00040404043F
:1001100004040404020202020202030303030303B1
:10012000010204081020408001020408102001028E
:1001300004081020711411241FBECFEFD8E0DEBFD9
:10014000CDBF11E0A0E0B1E0EAE6F1E302C0059026
:100150000D92A036B107D9F723E0A0E6B1E001C0C7
:100160001D92A134B207E1F710E0CBE9D0E004C062
:100170002197FE010E94A818CA39D107C9F70E9429
:10018000D40B0C94B3180C940000FC01538D448DD7
:10019000252F30E0842F90E0821B930B541710F032
:1001A000CF96089501970895FC01918D828D98173F
:1001B00061F0828DDF01A80FB11D5D968C91928D4B
:1001C0009F5F9F73928F90E008958FEF9FEF089548
:1001D000FC01918D828D981731F0828DE80FF11D11
:1001E000858D90E008958FEF9FEF0895FC01918D2C
:1001F000228D892F90E0805C9F4F821B91098F7325
:10020000992708958DE492E00E94F60021E0892B61
:1002100009F420E0822F0895FC01848DDF01A80FEE
:10022000B11DA35ABF4F2C91848D90E001968F731E
:100230009927848FA689B7892C93A089B1898C913D
:1002400080648C93938D848D981306C00288F38903
:10025000E02D80818F7D80830895EF92FF920F9330
:100260001F93CF93DF93EC0181E0888F9B8D8C8D62
:10027000981305C0E889F989808185FD24C0F62E90
:100280000B8D10E00F5F1F4F0F731127E02E8C8D29
:10029000E8120CC00FB607FCFACFE889F989808113
:1002A00085FFF5CFCE010E940C01F1CF8B8DFE01B1
:1002B000E80FF11DE35AFF4FF0820B8FEA89FB89AB
:1002C0008081806207C0EE89FF896083E889F989AF
:1002D00080818064808381E090E0DF91CF911F91E5
:1002E0000F91FF90EF900895CF93DF93EC01888DED
:1002F0008823C9F0EA89FB89808185FD05C0A8892A
:10030000B9898C9186FD0FC00FB607FCF5CF8081AF
:1003100085FFF2CFA889B9898C9185FFEDCFCE01F9
:100320000E940C01E7CFDF91CF91089580E090E02B
:10033000892B29F00E94020181110C94000008957C
:100340000E94AE181F920F920FB60F9211242F9396
:100350003F934F935F936F937F938F939F93AF934D
:10036000BF93EF93FF938DE492E00E940C01FF9105
:10037000EF91BF91AF919F918F917F916F915F911D
:100380004F913F912F910F900FBE0F901F90189596
:100390001F920F920FB60F9211242F938F939F935A
:1003A000EF93FF93E0915D02F0915E028081E09116
:1003B0006302F091640282FD12C090818091660216
:1003C0008F5F8F7320916702821751F0E091660270
:1003D000F0E0E35BFD4F958F8093660201C0808162
:1003E000FF91EF919F918F912F910F900FBE0F90E2
:1003F0001F9018958091F80190E02091F701821BE1
:100400009109089585ED8093BC008091BC0084FD26
:10041000FCCF10922802089540918C01262F30E0E5
:10042000240F311D21323105DCF4209128022430C3
:10043000C9F4FC0180E090E0861758F430918C01FB
:100440002191DC01A659BE4FA30FB11D2C9301963B
:10045000F3CF80918C01680F60938C0180E0089548
:1004600081E0089582E008950895E091F701809178
:10047000F801E81730F4F0E0E952FE4F808190E097
:1004800008958FEF9FEF08959091F7018091F80103
:10049000981750F4E92FF0E0E952FE4F208130E048
:1004A0009F5F9093F70102C02FEF3FEFC9010895BE
:1004B000CF92DF92EF92FF920F931F93CF93DF9330
:1004C0007C01262F972F8A0180912902882391F0A1
:1004D000C62FD72F6E01C40ED51ECC15DD0571F0C9
:1004E0006991D701ED91FC910190F081E02DC70158
:1004F0000995F3CF642F822F0E940C02C801DF916F
:10050000CF911F910F91FF90EF90DF90CF900895C2
:10051000CF93DF931F92CDB7DEB769832091290275
:100520002223D1F020914C02203240F021E030E033
:10053000FC013383228380E090E015C080912A0281
:10054000E82FF0E0E55DFD4F998190838F5F809308
:100550002A0280934C0205C061E0CE0101960E9400
:100560000C0281E090E00F90DF91CF910895089503
:1005700080E090E0089590E0FC01EC51FF4F349151
:10058000FC01E05EFE4F2491FC01E45FFE4FE4912C
:10059000EE2309F43BC0332339F1333091F038F4C2
:1005A0003130A9F0323001F584B58F7D12C037307B
:1005B00091F03830A1F03430B9F4809180008F7D13
:1005C00003C0809180008F77809380000DC084B538
:1005D0008F7784BD09C08091B0008F7703C0809170
:1005E000B0008F7D8093B000F0E0EE0FFF1FE85069
:1005F000FF4FA591B4918FB7F894EC91611103C0AE
:1006000020952E2301C02E2B2C938FBF08953FB72A
:10061000F8948091FE019091FF01A0910002B091A9
:10062000010226B5A89B05C02F3F19F00196A11D18
:10063000B11D3FBFBA2FA92F982F8827820F911D78
:10064000A11DB11DBC01CD0142E0660F771F881FBF
:10065000991F4A95D1F708958F929F92AF92BF92BA
:10066000CF92DF92EF92FF926B017C010E94070311
:100670004B015C01C114D104E104F104F1F00E94CA
:100680000703DC01CB0188199909AA09BB09883E37
:100690009340A105B10570F321E0C21AD108E10829
:1006A000F10888EE880E83E0981EA11CB11CC114CD
:1006B000D104E104F10419F7DDCFFF90EF90DF9052
:1006C000CF90BF90AF909F908F9008951F920F9200
:1006D0000FB60F9211242F933F938F939F93AF9355
:1006E000BF938091FA019091FB01A091FC01B09120
:1006F000FD013091F90123E0230F2D3720F40196FD
:10070000A11DB11D05C026E8230F0296A11DB11D34
:100710002093F9018093FA019093FB01A093FC01CF
:10072000B093FD018091FE019091FF01A091000224
:10073000B09101020196A11DB11D8093FE0190931D
:10074000FF01A0930002B0930102BF91AF919F916E
:100750008F913F912F910F900FBE0F901F90189582
:100760008EBD00000DB407FEFDCF8EB508958F92AB
:100770009F92AF92BF92CF92DF92EF92FF926B0166
:100780007C0120E030E040E05FE30E94CB174B01AA
:100790005C01D701C601B595A795979587953FED63
:1007A000C32E39E5D32E37E3E32E3FE5F32EC81AE7
:1007B000D90AEA0AFB0AA7019601C501B4010E9401
:1007C000CB17A70196010E94CB179B01AC0160E0FB
:1007D00070E080EC9FE30E9411159B01AC01C70102
:1007E000B6010E94CB176B017C019B01AC01C501D6
:1007F000B4010E94CB17A70196010E94CB179B0161
:10080000AC0160E070E080EC9FE30E9411159B0159
:10081000AC01C701B6010E94CB17FF90EF90DF90AB
:10082000CF90BF90AF909F908F9008952F923F925E
:100830004F925F926F927F928F929F92AF92BF92F0
:10084000CF92DF92EF92FF920F931F93CF93DF939C
:10085000CDB7DEB727970FB6F894DEBF0FBECDBF7A
:100860008F83962E742F59018FB7F894C090FA0198
:10087000D090FB01E090FC01F090FD018FBF5F8103
:10088000550F5B83812C312C2224239450E05D830F
:100890004C832801612C712C871608F0A4C020928B
:1008A00029025F8150934B0210922A0210924C024F
:1008B000692D8AEE92E07E830E9488020E942109BF
:1008C000209229025F8150934B0210922A021092CB
:1008D0004C027E81809128028111FCCF2C813D81C8
:1008E000281931092132310514F020E230E021329B
:1008F00008F020E220922802209227028FEF8093B6
:10090000260210922502820F809324022092030275
:10091000809103024B81842B809303028091020219
:10092000813071F410920202809103028093BB0027
:100930008091BC0083FDF8CF55EC5093BC0003C000
:1009400085EE8093BC00809128028130E1F3809194
:100950002502821710F420912502A4E0B2E0E7ED11
:10096000F1E08E2F47ED51E0841B821718F48D9132
:100970008193F7CF1092F7012093F8019091F8013D
:100980008091F701981749F10115110591F4A5011E
:10099000430D511D37FC5A955A8349838AEE92E0E4
:1009A0007E830E944402E981FA81808333947E81B0
:1009B000E5CF2FB7F8948091FA019091FB01A091B7
:1009C000FC01B091FD012FBF8C199D09AE09BF0933
:1009D00084159505A605B705D0F2872F713208F06A
:1009E00080E2880E59CF0115110509F12FB7F8944F
:1009F0008091FA019091FB01A091FC01B091FD0161
:100A00002FBF8C199D09AE09BF0920E030E0801787
:100A10009107A207B30758F0272F30E0832D032C4E
:100A2000000C990B8217930714F433243A94832D06
:100A300027960FB6F894DEBF0FBECDBFDF91CF91E2
:100A40001F910F91FF90EF90DF90CF90BF90AF90EC
:100A50009F908F907F906F905F904F903F902F90DE
:100A60000895BF92CF92DF92EF92FF920F931F9360
:100A7000CF93DF9300D0CDB7DEB7F82EE62EC42E8D
:100A8000B22ED02E08EE13E09E012E5F3F4F41E0C4
:100A90000E941604882349F14C2D50E04B1951094E
:100AA0004F5F5F4F21E030E002C0220F331FBA9446
:100AB000E2F721503109042E01C0220F0A94EAF70F
:100AC0008D2D01C0880F4A95EAF7322F30959A8113
:100AD00093232823292B2A832983AE014F5F5F4F5D
:100AE0006E2D8F2D0E94E10A01C080E00F900F90C3
:100AF000DF91CF911F910F91FF90EF90DF90CF90FA
:100B0000BF9008950F931F93CF93DF931F92CDB79C
:100B1000DEB78C01DC018C918C3008F055C0862F3B
:100B200069830E94FF0AF8018081E82FF0E09F01AD
:100B3000220F331FE20FF31FED54FE4F69816F73D5
:100B40009081907C692B6083D80111961C9211973B
:100B500012961C926CE00E949C18BCE08B9FB00126
:100B6000112440E050E09A01260F371FF901EE0FE3
:100B7000FF1F2E0F3F1FF901ED54FE4F908196FD90
:100B800016C04F5F5F4F4C30510569F781110FC0A0
:100B90001092800082E08093810010928500109274
:100BA0008400B19A80916F00826080936F00D801B9
:100BB000EC91F0E0CF01880F991FE80FF91FED5479
:100BC000FE4F808180648083F80180810F90DF91E7
:100BD000CF911F910F910895FC019091B2019C302B
:100BE000A0F481E0890F8093B2019083892F90E077
:100BF000FC01EE0FFF1F8E0F9F1FFC01ED54FE4FF7
:100C000088EB9BE09283818308958FEF8083089522
:100C10001F920F920FB60F9211242F933F934F9371
:100C20005F936F937F938F939F93AF93BF93EF9354
:100C3000FF938091B10187FF05C01092850010924B
:100C400084001BC02091B101022E000C330B809157
:100C5000B20190E02817390784F48091B101082E81
:100C6000000C990BFC01EE0FFF1F8E0F9F1FFC0164
:100C7000ED54FE4F808186FD15C08091B1018F5FDC
:100C80008093B1012091B101022E000C330B8091B1
:100C9000B20190E028173907C4F48091B1018C307B
:100CA00064F113C08091B101082E000C990BFC0176
:100CB000EE0FFF1F8E0F9F1FFC01ED54FE4F808132
:100CC00060E08F730E94BB02D8CF80918400909126
:100CD0008500049680349C4918F480E49CE905C0A2
:100CE0008091840090918500049690938900809370
:100CF00088008FEF8093B1013BC020918400309138
:100D000085008091B101082E000C990BFC01EE0FBB
:100D1000FF1F8E0F9F1FFC01ED54FE4F81819281BA
:100D2000820F931F90938900809388008091B10176
:100D3000082E000C990BFC01EE0FFF1F8E0F9F1F5A
:100D4000FC01ED54FE4F808186FF12C08091B101FD
:100D5000082E000C990BFC01EE0FFF1F8E0F9F1F3A
:100D6000FC01ED54FE4F808161E08F730E94BB0255
:100D7000FF91EF91BF91AF919F918F917F916F9173
:100D80005F914F913F912F910F900FBE0F901F9049
:100D900018951F920F920FB60F9211242F933F9325
:100DA0004F935F936F937F938F939F93AF93BF9373
:100DB000EF93FF938091B900887F803609F49CC03F
:100DC00068F5883209F45BC090F4803109F454C0AE
:100DD00038F4882309F4F6C0883009F44DC0F6C011
:100DE000883109F44CC0803209F45DC0EFC0803412
:100DF00009F468C048F4803309F455C0883309F019
:100E0000E5C080932602D8C0803509F44FC08835EC
:100E100009F45DC0883409F0D9C0D6C0883909F416
:100E2000C7C0A8F4883709F467C038F4883609F4D5
:100E300063C0803709F460C0C9C0883809F4B8C0FD
:100E4000803909F45FC0803809F0C0C05BC0803BC6
:100E500009F486C038F4803A09F466C0883A09F487
:100E60007FC0B4C0803C09F4A7C0883C09F4A4C08A
:100E7000883B09F48AC0AAC08091030210C09091F7
:100E8000250280912402981770F5E091250281E0F7
:100E90008E0F80932502F0E0EC5FFD4F8081809300
:100EA000BB0085EC86C0809326028EC0E0912502AF
:100EB00081E08E0F809325028091BB00F0E0EC5F13
:100EC000FD4F808390912502809124026EC0E091B5
:100ED000250281E08E0F809325028091BB00F0E017
:100EE000EC5FFD4F80838091270281116DC081E00E
:100EF0008093020284EA61C083E08093280210920A
:100F0000B001CFCF8091B001803208F051C0E091A4
:100F1000B00181E08E0F8093B0018091BB00F0E0C2
:100F2000E057FE4F8083BDCF85EC8093BC001092CC
:100F300028028091B001803230F4E091B001F0E0FD
:100F4000E057FE4F10826091B00170E0E0918E0199
:100F5000F0918F0180E991E009951092B00136C0BF
:100F600084E08093280210928D0110928C01E09110
:100F70008A01F0918B01099580918C01811105C046
:100F800081E080938C0110926A01E0918D0181E0F3
:100F90008E0F80938D01F0E0E659FE4F80818093A3
:100FA000BB0090918D0180918C01981708F479CF46
:100FB00085E88093BC000AC085EC8093BC00109249
:100FC000280204C0109226020E940202FF91EF91B3
:100FD000BF91AF919F918F917F916F915F914F9151
:100FE0003F912F910F900FBE0F901F901895CF92A9
:100FF000DF92EF92FF920F931F93CF93DF936C01D9
:101000007A018B01C0E0D0E0CE15DF0589F0D80170
:101010006D918D01D601ED91FC910190F081E02D53
:10102000C6010995892B11F47E0102C02196ECCFEF
:10103000C701DF91CF911F910F91FF90EF90DF904B
:10104000CF9008954F925F926F927F928F929F926E
:10105000AF92BF92CF92DF92EF92FF920F931F93C6
:10106000CF93DF93CDB7DEB760970FB6F894DEBFAE
:101070000FBECDBF0DE013E0D80118968D919D9164
:101080000D90BC91A02D89839A83AB83BC83F8011A
:1010900084849584A684B784A5019401C501B40114
:1010A0000E94CB1769877A878B879C87D801149613
:1010B0008D919D910D90BC91A02D8D839E83AF83CA
:1010C000B887F801C088D188E288F38829813A81FD
:1010D0004B815C81CA01B9010E94CB179B01AC0115
:1010E00060E070E080E09FE30E94111529853A8559
:1010F0004B855C850E9411156D877E878F87988B45
:1011000029813A814B815C816D817E818F819885B7
:101110000E94CB172B013C01A7019601C501B40128
:101120000E94CB179B01AC01C301B2010E941215B2
:101130002D853E854F8558890E94AC15D80158965B
:101140006D937D938D939C935B97A7019601698125
:101150007A818B819C810E94CB172B013C01A501D8
:1011600094016D817E818F8198850E94CB179B01B0
:10117000AC01C301B2010E94111520E030E040E053
:1011800050EC0E94CB170E947E15F801648F758F7A
:10119000868F978F29853A854B855C8560E070E066
:1011A00080E09FE30E9411152B013C01A7019601ED
:1011B000C701B6010E94CB179B01AC01C301B2016C
:1011C0000E9411152B013C01A501940169817A81CE
:1011D0008B819C810E94CB174B015C01A70196017A
:1011E0006D817E818F8198850E94CB179B01AC0118
:1011F000C501B4010E941215A30192010E94AC1511
:10120000D80190966D937D938D939C93939781E0F5
:1012100094968C9360960FB6F894DEBF0FBECDBF48
:10122000DF91CF911F910F91FF90EF90DF90CF90C2
:10123000BF90AF909F908F907F906F905F904F90F6
:10124000089520914C0290914B02213208F04AC03F
:10125000809128028111FCCF32E03093280231E0E6
:10126000309327023FEF30932602109225022093FD
:101270002402ABE2B2E044E052E0FA013E2F341B1C
:10128000321718F43D913193F9CF10920302209157
:101290000302990F922B90930302909102029130D6
:1012A00061F410920202909103029093BB0090911E
:1012B000BC0093FDF8CF95EC01C095EE9093BC0077
:1012C000909128029230E1F3909126029F3F79F0AD
:1012D00080912602803241F080912602803331F0E5
:1012E00084E005C081E003C082E001C083E0109289
:1012F0002A0210924C021092290208950F931F9314
:10130000CF93DF9303E010E0CCE2D1E061E086E030
:101310000E94BB0261E070E080E090E00E942C033C
:1013200060E086E00E94BB0261E070E080E090E057
:101330000E942C03219751F764E670E080E090E072
:101340000E942C0301501109F9F6DF91CF911F91F2
:101350000F910895009769F0FC0101900020E9F7D2
:101360003197AF01481B590BBC018DE492E00C94FE
:10137000F70780E090E008958F929F92AF92BF921E
:101380000F931F93CF93DF93CDB7DEB7A1970FB61F
:10139000F894DEBF0FBECDBF19A2423008F44AE078
:1013A0008E010F5D1F4F842E912CA12CB12CA50115
:1013B00094010E94EF14E62FB901CA0101501109EE
:1013C000EA3014F4E05D01C0E95CD801EC93232B12
:1013D000242B252B61F7C8010E94AA09A1960FB6FC
:1013E000F894DEBF0FBECDBFDF91CF911F910F915B
:1013F000BF90AF909F908F9008954F925F926F92A1
:101400007F928F929F92AF92BF92CF92DF92EF9294
:10141000FF926B017C01B42E9B01AC010E948218EB
:10142000882319F083E591E027C026013701E8946D
:1014300077F82FEF3FEF4FE75FE7C301B2010E945C
:10144000821881110DC02FEF3FEF4FE75FE7C30117
:10145000B2010E940B1618161CF487E591E00CC02F
:101460002FEF3FEF4FE75FE4C701B6010E94BE17C1
:10147000181684F48BE591E0FF90EF90DF90CF9009
:10148000BF90AF909F908F907F906F905F904F90A4
:101490000C94AA092FEF3FEF4FE75FECC701B601AD
:1014A0000E940B1687FDE6CF20E030E0A901C701BE
:1014B000B6010E940B1687FF11C0E0914D02F0911A
:1014C0004E020190F081E02D6DE28DE492E00995ED
:1014D0004C01F7FAF094F7F8F09402C0812C912CAB
:1014E000A12C60E070E080E09FE3AB1441F020E0CD
:1014F00030E040E251E40E941016A394F6CF9B0125
:10150000AC01C701B6010E9412152B013C010E94DB
:1015100082166B017C010E94B1169B01AC01C301D4
:10152000B2010E9411152B013C014AE0C701B6012E
:101530000E94BC097C01E80CF91CBB2069F0E09119
:101540004D02F0914E020190F081E02D6EE28DE4AB
:1015500092E00995E80EF91EDB2CDD2021F120E058
:1015600030E040E251E4C301B2010E94CB172B01ED
:101570003C010E9482164B01A12CB12C4AE0C5010E
:10158000B4010E94BC09E80EF91EC501B4010E9415
:10159000B1169B01AC01C301B2010E9411152B01D0
:1015A0003C01DA94DACFC701FF90EF90DF90CF9043
:1015B000BF90AF909F908F907F906F905F904F9073
:1015C0000895CF93DF93EA0191E0909329028093ED
:1015D0004B0210922A0210924C028AEE92E00E9474
:1015E000880268818AEE92E00E9488020E942109A6
:1015F00091E0811190E0892FDF91CF91089590E0E3
:10160000FC01E05EFE4F2491FC01E45FFE4F8491FB
:10161000882399F090E0880F991FFC01EE5FFE4F40
:10162000A591B491FC01E850FF4F859194918FB73B
:10163000F894EC91E22BEC938FBF08959CB59F7DBD
:101640009CBD9CB5937F9CBD9CB59C7F9CBD9DB56E
:1016500091609DBD682F809103030C94BB02CF93D2
:10166000C82F80E00E941E0B8C2F0E94B003C82F51
:1016700081E00E941E0B8C2FCF910895EF92FF9274
:101680000F931F93CF93DF9300D0CDB7DEB7082F12
:10169000162F80E049837A830E941E0B802F8F7162
:1016A00080620E94B003082FE12E7A81F72E4981D3
:1016B000140F1E1531F0F70181917F010E94B003D4
:1016C000F8CF81E00E941E0B802F0F900F90DF91CA
:1016D000CF911F910F91FF90EF9008951F93CF939B
:1016E000DF931F92CDB7DEB7182F80E069830E9489
:1016F0001E0B812F8F7180620E94B003182F6981A9
:10170000862F0E94B00381E00E941E0B812F0F9054
:10171000DF91CF911F910895CF93C82F80E00E9451
:101720001E0B8C2F8F710E94B0038FEF0E94B003AD
:10173000C82F81E00E941E0B8C2FCF91089580E06E
:101740000E948C0B81FD0EC080E00E948C0B682FE4
:10175000626080E00E946E0B65E070E080E090E0E7
:101760000C942C0308950F931F93CF938C0186E064
:101770000E948C0BC82FC77D0230110511F4C06286
:1017800004C00130110509F4C8606C2F86E00E9486
:101790006E0B86E00E948C0B91E08C1390E0892FF9
:1017A000CF911F910F910895CF93DF93CDB7DEB7FF
:1017B000CA55D1090FB6F894DEBF0FBECDBF7894DD
:1017C00084B5826084BD84B5816084BD85B5826046
:1017D00085BD85B5816085BD80916E0081608093F7
:1017E0006E00109281008091810082608093810060
:1017F0008091810081608093810080918000816070
:10180000809380008091B10084608093B1008091CA
:10181000B00081608093B00080917A0084608093F2
:101820007A0080917A00826080937A0080917A00B9
:10183000816080937A0080917A00806880937A003A
:101840001092C100E0915D02F0915E0282E080831F
:10185000E0915902F0915A021082E0915B02F091FE
:101860005C028FEC808310926502E0916102F0913E
:10187000620286E08083E0915F02F09160028081E5
:1018800080618083E0915F02F091600280818860D6
:101890008083E0915F02F0916002808180688083A4
:1018A000E0915F02F091600280818F7D8083809162
:1018B00002030E94FF0A809103030E94FF0A1FB7E0
:1018C000F89480916001811124C0E6E1F1E08491F7
:1018D000EAE2F1E09491E82FF0E0EE0FFF1FEE5FF7
:1018E000FE4FA591B491EC91E92321F461E08AE0E7
:1018F0000E94BB028AE00E94FF0A8CB580618CBD09
:101900008CB580648CBD8DE00E94FF0A8BE00E9444
:10191000FF0A809160018F5F809360011FBF60E0CC
:10192000809102030E94BB0281E00E941E0B65E0D1
:1019300070E080E090E00E942C036FE584E00E945C
:101940006E0B82E090E00E94B30B882319F081E0D7
:101950008093040380E090E00E94B30B80E00E943B
:101960008C0B682F6C6080E00E946E0B60E787E054
:101970000E946E0B6CE485E00E946E0B82EE0E946A
:101980002F0B81EE0E942F0B0E949F0B80E00E9484
:101990008C0B682F6E7F80E00E946E0B6FE381E0FE
:1019A0000E946E0B6FE084E00E946E0B80E00E944C
:1019B0001E0B80E50E94B00383E70E94B00381E024
:1019C0000E941E0B8DE10E948C0B682F66608DE1DA
:1019D0000E946E0B8CE10E948C0B682F63608CE17F
:1019E0000E946E0B81E08093060380E280930503E2
:1019F000EFEDF0E0849140910C0360E071E00E9413
:101A00003E0BE9EDF0E08491609105030E946E0BBE
:101A100082E00E948C0BE3EDF0E0E49161E070E085
:101A200001C0660FEA95EAF7682B82E00E946E0B10
:101A300060E685E00E946E0B86E00E948C0B682FAA
:101A4000676086E00E946E0B82E090E00E94B30B1C
:101A50000E949F0B0E949F0B80E00E948C0B682FBE
:101A6000616080E00E946E0B60E787E00E946E0B71
:101A700080910703882339F040910C0367E073E0FD
:101A80008AE00E943E0B81EE0E942F0B61E0809164
:101A900002030E94BB0262E070E08FEF92E00E94BE
:101AA000820563E070E08CEF92E00E94820564E0C2
:101AB00070E089EF92E00E94820565E070E086EFB9
:101AC00092E00E94820586E00E94FF0A0E947E0941
:101AD0009091610181E089278093610101E023E019
:101AE00042E06BE6809132030E94310500E022E083
:101AF00044E06BE1809132030E94310522E044E032
:101B00006CE1809132030E943105F090320308EEBF
:101B100013E09E012E5F3F4F41E06BE68F2D0E9448
:101B200016049A819F7B9A839983AE014F5F5F4F22
:101B30006BE68F2D0E94E10A8AE097EDA3E2BDE3F8
:101B40008093210390932203A0932303B093240353
:101B500068E873E180E090E00E942C0380E49CE957
:101B6000A0E0B0E08093620190936301A0936401D0
:101B7000B09365010E94070360936601709367014B
:101B800080936801909369010E940703C0906601E9
:101B9000D0906701E0906801F0906901DC01CB0111
:101BA0008C199D09AE09BF09C0906201D0906301F4
:101BB000E0906401F09065018C159D05AE05BF05B0
:101BC00008F48CC608EE13E023E333E04EE06BE349
:101BD000809132030E9416046091330370E0762FE7
:101BE000662780913403682B072E000C880B990B15
:101BF0000E94B3169B01AC010E94121520E030E058
:101C000040E058E30E94CB176B8B7C8B8D8B9E8BB7
:101C10006091350370E0762F662780913603682B3C
:101C2000072E000C880B990B0E94B3169B01AC0188
:101C30000E94121520E030E040E058E30E94CB17EC
:101C40006F8B788F898F9A8F6091370370E0762F32
:101C5000662780913803682B072E000C880B990BA0
:101C60000E94B3169B01AC010E94121520E030E0E7
:101C700040E058E30E94CB176B8F7C8F8D8F9E8F37
:101C800060913B0370E0762F662780913C03682BC0
:101C9000072E000C880B990B0E94B31620E030E051
:101CA0004AE753E40E94CB1720E030E040E058E3DD
:101CB0000E94CB1729E33AEF4EE85CE30E94CB1772
:101CC0006F8F78A389A39AA360913D0370E0762F6C
:101CD000662780913E03682B072E000C880B990B1A
:101CE0000E94B31620E030E04AE753E40E94CB178D
:101CF00020E030E040E058E30E94CB1729E33AEFC0
:101D00004EE85CE30E94CB176B017C0160913F03BE
:101D100070E0762F662780914003682B072E000C19
:101D2000880B990B0E94B31620E030E04AE753E499
:101D30000E94CB1720E030E040E058E30E94CB1730
:101D400029E33AEF4EE85CE30E94CB174B015C01BC
:101D50008091150390911603A0911703B091180379
:101D60008B839C83AD83BE838091190390911A036A
:101D7000A0911B03B0911C038B879C87AD87BE8706
:101D800080911D0390911E03A0911F03B091200329
:101D90008F87988BA98BBA8B6B817C818D819E817B
:101DA00090582F8D38A149A15AA10E94CB172B0121
:101DB0003C01A70196016B857C858D859E850E94DF
:101DC000CB179B01AC01C301B2010E9411152B017D
:101DD0003C01A50194016F85788989899A890E94BF
:101DE000CB179B01AC01C301B2010E94111520E089
:101DF00030E040E05FE30E94CB176BA77CA78DA784
:101E00009EA78091110390911203A0911303B091AA
:101E100014038F839887A987BA872F8D38A149A18A
:101E20005AA1BC01CD010E94CB172B013C01A50199
:101E300094016B857C858D859E850E94CB179B01C7
:101E4000AC01C301B2010E9412152B013C01A70194
:101E500096016F85788989899A890E94CB179B01A1
:101E6000AC01C301B2010E94111520E030E040E056
:101E70005FE30E94CB176FA778AB89AB9AABA70142
:101E800096016F81788589859A850E94CB172B01F1
:101E90003C01A50194016B817C818D819E810E9412
:101EA000CB179B01AC01C301B2010E9411152B019C
:101EB0003C012F8D38A149A15AA16F857889898964
:101EC0009A890E94CB179B01AC01C301B2010E9409
:101ED000121520E030E040E05FE30E94CB176BABCF
:101EE0007CAB8DAB9EABA50194016F817885898514
:101EF0009A850E94CB174B015C01A70196016B816B
:101F00007C818D819E810E94CB179B01AC01C50114
:101F1000B4010E9412156B017C012F8D38A149A1DB
:101F20005AA16B857C858D859E850E94CB179B0170
:101F3000AC01C701B6010E94111520E030E040E07D
:101F40005FE30E94CB176FAB78AF89AF9AAF20E009
:101F500030E0A9016B897C898D899E890E940B16CE
:101F6000811117C020E030E0A9016F89788D898D3B
:101F70009A8D0E940B1681110CC020E030E0A9015F
:101F80006B8D7C8D8D8D9E8D0E940B16882309F4A0
:101F90004EC32B893C894D895E89CA01B9010E94D3
:101FA000CB176B017C012F89388D498D5A8DCA0161
:101FB000B9010E94CB179B01AC01C701B6010E9479
:101FC00012156B017C012B8D3C8D4D8D5E8DCA01F0
:101FD000B9010E94CB179B01AC01C701B6010E9459
:101FE00012150E94B7036B017C019B01AC016B8948
:101FF0007C898D899E890E94CB176B8B7C8B8D8B06
:102000009E8BA70196016F89788D898D9A8D0E948C
:10201000CB176F8B788F898F9A8FA70196016B8D65
:102020007C8D8D8D9E8D0E94CB1723966CAF7DAFDE
:102030008EAF9FAF23972F81388549855A85CA0176
:10204000B9010E94121527966CAF7DAF8EAF9FAF7E
:1020500027972B813C814D815E81CA01B9010E9485
:1020600012152B966CAF7DAF8EAF9FAF2B972B8544
:102070003C854D855E85CA01B9010E9412152F96D7
:102080006CAF7DAF8EAF9FAF2F972F853889498971
:102090005A89CA01B9010E94121563966CAF7DAFCF
:1020A0008EAF9FAF639720E030E040E850E46F814F
:1020B000788589859A850E94CB176B017C0120E089
:1020C00030E040E850E46B817C818D819E810E94EC
:1020D000CB176BA37CA38DA39EA320E030E040E848
:1020E00050E46B857C858D859E850E94CB176FA300
:1020F00078A789A79AA720E030E040E051E46B81FF
:102100007C818D819E810E94CB174B015C0120E078
:1021100030E040E051E46B857C858D859E850E9492
:10212000CB1767966CAF7DAF8EAF9FAF67972B8154
:102130003C814D815E81CA01B9010E94CB176B8F32
:102140007C8F8D8F9E8F2B853C854D855E85CA014A
:10215000B9010E94CB176F8F78A389A39AA32F850B
:10216000388949895A89CA01B9010E94CB176B96EF
:102170006CAF7DAF8EAF9FAF6B972F8D38A149A10C
:102180005AA1C701B6010E94CB172B013C012B8934
:102190003C894D895E892F966CAD7DAD8EAD9FAD2E
:1021A0002F970E94CB179B01AC01C301B2010E9483
:1021B00012152B013C012B8D3C8D4D8D5E8DC70181
:1021C000B6010E94CB179B01AC01C301B2010E9472
:1021D00012156B017C012F89388D498D5A8D2B96F4
:1021E0006CAD7DAD8EAD9FAD2B970E94CB179B0143
:1021F000AC01C701B6010E9411156BAF7CAF8DAF6A
:102200009EAF2F81388549855A85CA01B9010E9440
:10221000CB1720E030E040E850E40E94CB176B0180
:102220007C016B962CAD3DAD4EAD5FAD6B976BA158
:102230007CA18DA19EA10E94CB172B013C012B8973
:102240003C894D895E8963966CAD7DAD8EAD9FAD49
:1022500063970E94CB179B01AC01C301B2010E949E
:1022600011152B013C012B813C814D815E81C70101
:10227000B6010E94CB179B01AC01C301B2010E94C1
:1022800012152B013C012F89388D498D5A8D2796C7
:102290006CAD7DAD8EAD9FAD27970E94CB179B0196
:1022A000AC01C301B2010E9411152BA13CA14DA1AB
:1022B0005EA10E9411152B013C012B8D3C8D4D8D93
:1022C0005E8DC501B4010E94CB179B01AC01C30117
:1022D000B2010E9412152B013C012F8D38A149A19A
:1022E0005AA1C501B4010E94CB179B01AC01C301E7
:1022F000B2010E9412154B015C0123962CAD3DAD3D
:102300004EAD5FAD23976BA17CA18DA19EA10E94D4
:10231000CB179B01AC01C501B4010E9412156BA340
:102320007CA38DA39EA32B853C854D855E85C7012F
:10233000B6010E94CB176B017C012B893C894D892A
:102340005E8927966CAD7DAD8EAD9FAD27970E94BF
:10235000CB179B01AC01C701B6010E9412156B019E
:102360007C016B962CAD3DAD4EAD5FAD6B976FA113
:1023700078A589A59AA50E94CB179B01AC01C7013E
:10238000B6010E9412156B017C012F89388D498D91
:102390005A8D63966CAD7DAD8EAD9FAD63970E94F7
:1023A000CB179B01AC01C701B6010E9411152FA1EB
:1023B00038A549A55AA50E9411156B017C012B8DEA
:1023C0003C8D4D8D5E8D67966CAD7DAD8EAD9FADB8
:1023D00067970E94CB179B01AC01C701B6010E9411
:1023E00012156B017C012F8D38A149A15AA1679666
:1023F0006CAD7DAD8EAD9FAD67970E94CB179B01F5
:10240000AC01C701B6010E9412156B017C01239635
:102410002CAD3DAD4EAD5FAD23976FA178A589A5DD
:102420009AA50E94CB179B01AC01C701B6010E947F
:1024300012156FA378A789A79AA720E030E040E89B
:1024400050E46B8D7C8D8D8D9E8D0E94CB172F85DA
:10245000388949895A890E94CB176B017C012B89E5
:102460003C894D895E892B966CAD7DAD8EAD9FAD5F
:102470002B970E94CB179B01AC01C701B6010E94AC
:1024800011156B017C0120E030E040E850E46F8DD5
:1024900078A189A19AA10E94CB172F8538894989F3
:1024A0005A890E94CB179B01AC01C701B6010E945B
:1024B00012156B017C012F89388D498D5A8D2F960D
:1024C0006CAD7DAD8EAD9FAD2F970E94CB179B015C
:1024D000AC01C701B6010E9411152B013C012BADC7
:1024E0003CAD4DAD5EADCA01B9010E94CB176B0189
:1024F0007C012BA13CA14DA15EA1CA01B9010E94A2
:10250000CB179B01AC01C701B6010E9412156B01EC
:102510007C012FA138A549A55AA5CA01B9010E947D
:10252000CB179B01AC01C701B6010E9412156B01CC
:102530007C01A3019201C301B2010E94CB179B0150
:10254000AC01C701B6010E9412150E94B7034B01EE
:102550005C01C0900D03D0900E03E0900F03F0904B
:1025600010039B01AC016BAD7CAD8DAD9EAD0E94A7
:10257000CB179B01AC01C701B6010E94CB179B0191
:10258000AC016BA57CA58DA59EA50E9411156BA71E
:102590007CA78DA79EA7A50194016BA17CA18DA10D
:1025A0009EA10E94CB179B01AC01C701B6010E94FE
:1025B000CB179B01AC016FA578A989A99AA90E94A4
:1025C00011156FA778AB89AB9AABA50194016FA1E8
:1025D00078A589A59AA50E94CB179B01AC01C701DC
:1025E000B6010E94CB179B01AC016BA97CA98DA9F8
:1025F0009EA90E9411156BAB7CAB8DAB9EABA50168
:102600009401C301B2010E94CB179B01AC01C70129
:10261000B6010E94CB179B01AC016FA978AD89ADC3
:102620009AAD0E9411156FAB78AF89AF9AAFC09089
:102630002103D0902203E0902303F0902403A7010C
:1026400096016BA57CA58DA59EA50E94CB179B012D
:10265000AC016F81788589859A850E9412156F83F8
:10266000788789879A87A70196016FA578A989A994
:102670009AA90E94CB179B01AC016B817C818D8153
:102680009E810E9412156B837C838D839E83A7019C
:1026900096016BA97CA98DA99EA90E94CB179B01CD
:1026A000AC016B857C858D859E850E9412152B0162
:1026B0003C01A70196016FA978AD89AD9AAD0E9442
:1026C000CB179B01AC016F85788989899A890E9413
:1026D00012154B015C012F81388549855A85CA0145
:1026E000B9010E94CB176B017C012B813C814D818C
:1026F0005E81CA01B9010E94CB179B01AC01C701E1
:10270000B6010E9412156B017C01A3019201C30165
:10271000B2010E94CB179B01AC01C701B6010E9418
:1027200012156B017C01A5019401C501B4010E9441
:10273000CB179B01AC01C701B6010E9412150E9484
:10274000B7036B017C019B01AC016F8178858985A2
:102750009A850E94CB1760931103709312038093A4
:10276000130390931403A70196016B817C818D81E3
:102770009E810E94CB17609315037093160380937C
:10278000170390931803A7019601C301B2010E9499
:10279000CB176093190370931A0380931B039093D4
:1027A0001C03A7019601C501B4010E94CB176093D9
:1027B0001D0370931E0380931F03909320031092B8
:1027C00031030E94220821EE3EE245E652E4609188
:1027D00025037091260380912703909128030E947E
:1027E000CB174B015C0180913103811102C00E9423
:1027F000220821EE3EE245E652E460912903709101
:102800002A0380912B0390912C030E94CB176B011C
:102810007C0120E030E046E353ECC501B4010E94A6
:10282000BE1787FD1FC020E030E042E353ECC50136
:10283000B4010E940B161816ACF020E030E040E422
:1028400050ECC701B6010E94BE1787FD0BC011E016
:1028500020E030E040E450E4C701B6010E940B16CE
:1028600018160CF410E010936101112329F00E9456
:102870007E091092610116C088E491E00E94AA09C5
:1028800042E0C501B4010E94FD098CE491E00E9480
:10289000AA0942E0C701B6010E94FD0980E591E066
:1028A0000E94AA09409166015091670160916801F8
:1028B000709169018091620190916301A09164011E
:1028C000B0916501840F951FA61FB71F8093660105
:1028D00090936701A0936801B09369010E949601EB
:1028E00053C9EDE4F2E01382128288EE93E0A0E097
:1028F000B0E084839583A683B78328E231E03183F7
:10290000208325EC30E03587248724EC30E03787BE
:10291000268720EC30E0318B208B21EC30E0338BAC
:10292000228B22EC30E0358B248B26EC30E0378B89
:10293000268B118E128E138E148EEAEEF2E0138225
:10294000128284839583A683B7838AE391E091837F
:10295000808388E680933203EDE0F3E08DEC9CEC1D
:10296000ACECBDE380839183A283B38380E090E0ED
:10297000A0E8BFE384839583A683B783108611867E
:10298000128613861486158616861786108A118A73
:10299000128A138A80E090E0A0E0BBE3848B958BE1
:1029A000A68BB78B14A2E2E0F3E089E080838AE093
:1029B0008183128280E28383148285E082878FEF95
:1029C00092E00E94EC058CEF92E00E94EC0589EF0A
:1029D00092E00E94EC0586EF92E00C94EC05A1E2F7
:1029E0001A2EAA1BBB1BFD010DC0AA1FBB1FEE1F89
:1029F000FF1FA217B307E407F50720F0A21BB30BD4
:102A0000E40BF50B661F771F881F991F1A9469F74F
:102A100060957095809590959B01AC01BD01CF01AB
:102A200008955058BB27AA270E9429150C94841793
:102A30000E94761738F00E947D1720F039F49F3FEE
:102A400019F426F40C9438170EF4E095E7FB0C9477
:102A50003217E92F0E94951758F3BA1762077307C8
:102A60008407950720F079F4A6F50C94B7170EF4B7
:102A7000E0950B2EBA2FA02D0B01B90190010C018E
:102A8000CA01A0011124FF27591B99F0593F50F4A6
:102A9000503E68F11A16F040A22F232F342F4427FE
:102AA000585FF3CF469537952795A795F0405395F6
:102AB000C9F77EF41F16BA0B620B730B840BBAF0C6
:102AC0009150A1F0FF0FBB1F661F771F881FC2F731
:102AD0000EC0BA0F621F731F841F48F48795779545
:102AE0006795B795F7959E3F08F0B0CF9395880FFF
:102AF00008F09927EE0F9795879508959F939F77F4
:102B0000EEE389379E0728F4E8E6F0E00E946217BA
:102B10000CC00E94EE169058A2EA2AED3FE049EC64
:102B20005FE30E9429150E9484170F9007FC9058BC
:102B300008950E94761760F080E891E009F49EEF16
:102B40000E947D1728F040E851E071F45EEF0CC060
:102B50000C9438170C94B717E92FE0780E9495175A
:102B600040F3092E052AB1F32617370748075907FE
:102B700038F00E2E07F8E02569F0E025E0640AC081
:102B8000EF6307F8009407FADB01B9019D01DC014E
:102B9000CA01AD01EF930E9427160E9484170E947C
:102BA000DC155F91552339F02BED3FE049E450FDF2
:102BB00049EC0C9412150895DF93DD27B92FBF77E8
:102BC00040E85FE31616170648075B0718F4D92F8D
:102BD0000E94C3179F938F937F936F930E947E18D9
:102BE000ECE7F0E00E943B170E9484172F913F9181
:102BF0004F915F910E94DE17DD2351F09058A2EAB9
:102C00002AED3FE049EC5FE3D0785D270E9429156B
:102C1000DF910C9484170E940E1708F481E0089548
:102C20000E9424160C9484170E947D1758F00E946D
:102C3000761740F029F45F3F29F00C9432175111B8
:102C40000C94B8170C9438170E94951768F39923C1
:102C5000B1F3552391F3951B550BBB27AA27621798
:102C60007307840738F09F5F5F4F220F331F441FA5
:102C7000AA1FA9F335D00E2E3AF0E0E832D09150D9
:102C80005040E695001CCAF72BD0FE2F29D0660FC6
:102C9000771F881FBB1F261737074807AB07B0E809
:102CA00009F0BB0B802DBF01FF2793585F4F3AF00F
:102CB0009E3F510578F00C9432170C94B8175F3F83
:102CC000E4F3983ED4F3869577956795B795F79595
:102CD0009F5FC9F7880F911D9695879597F908957D
:102CE000E1E0660F771F881FBB1F62177307840719
:102CF000BA0720F0621B730B840BBA0BEE1F88F728
:102D0000E09508950E949D1788F09F5798F0B92F7D
:102D10009927B751B0F0E1F0660F771F881F991F10
:102D20001AF0BA95C9F714C0B13091F00E94B717E4
:102D3000B1E008950C94B717672F782F8827B85FF4
:102D400039F0B93FCCF3869577956795B395D9F768
:102D50003EF490958095709561957F4F8F4F9F4F72
:102D60000895E89409C097FB3EF49095809570957E
:102D700061957F4F8F4F9F4F9923A9F0F92F96E9C7
:102D8000BB279395F695879577956795B795F1113C
:102D9000F8CFFAF4BB0F11F460FF1BC06F5F7F4FD9
:102DA0008F4F9F4F16C0882311F096E911C07723EB
:102DB00021F09EE8872F762F05C0662371F096E8F4
:102DC000862F70E060E02AF09A95660F771F881FC3
:102DD000DAF7880F9695879597F90895DF93CF9343
:102DE0001F930F938B01EC01E9EAF0E00E943B177F
:102DF0000E9484179801AE018B01EC0160E070E045
:102E000080E89FE30E9411150E943E189801AE01D0
:102E10000F911F91CF91DF910C94DE17990F00084D
:102E2000550FAA0BE0E8FEEF16161706E807F9079C
:102E3000C0F012161306E407F50798F0621B730B37
:102E4000840B950B39F40A2661F0232B242B252BB8
:102E500021F408950A2609F4A140A6958FEF811D5B
:102E6000811D089597F99F6780E870E060E00895FC
:102E70009FEF80EC0895DF93CF931F930F93FF9202
:102E8000EF92DF927B018C01689406C0DA2EEF018D
:102E90000E94DE17FE01E894A59125913591459198
:102EA0005591A6F3EF010E942915FE019701A80193
:102EB000DA9469F7DF90EF90FF900F911F91CF9117
:102EC000DF9108959F938F937F936F93FF93EF9379
:102ED0009B01AC010E94CB17EF91FF910E943B1721
:102EE0002F913F914F915F910C94CB1700240A943E
:102EF0001616170618060906089500240A941216D5
:102F00001306140605060895092E0394000C11F407
:102F1000882352F0BB0F40F4BF2B11F460FF04C0B4
:102F20006F5F7F4F8F4F9F4F089557FD9058440F0D
:102F3000551F59F05F3F71F04795880F97FB991F18
:102F400061F09F3F79F087950895121613061406D5
:102F5000551FF2CF4695F1DF08C016161706180662
:102F6000991FF1CF86957105610508940895E8943D
:102F7000BB2766277727CB0197F908950E940E1784
:102F800008F48FEF08959B01AC0160E070E080E8E9
:102F90009FE30C9410160E94DE170C9484170E9475
:102FA000761738F00E947D1720F0952311F00C94CD
:102FB00032170C94381711240C94B8170E949517E7
:102FC00070F3959FC1F3950F50E0551F629FF0017C
:102FD000729FBB27F00DB11D639FAA27F00DB11D95
:102FE000AA1F649F6627B00DA11D661F829F22271E
:102FF000B00DA11D621F739FB00DA11D621F839FA5
:10300000A00D611D221F749F3327A00D611D231F7A
:10301000849F600D211D822F762F6A2F11249F57C8
:1030200050409AF0F1F088234AF0EE0FFF1FBB1FCB
:10303000661F771F881F91505040A9F79E3F51058A
:1030400080F00C9432170C94B8175F3FE4F3983E6D
:10305000D4F3869577956795B795F795E7959F5F34
:10306000C1F7FE2B880F911D9695879597F90895C6
:1030700019F416F40C9438170C9487180E949D17B5
:10308000B8F39923C9F3B6F39F57550B87FF0E94F6
:1030900095180024A0E640EA90018058569597952F
:1030A00028F4805C660F771F881F20F026173707EB
:1030B000480730F4621B730B840B202931294A2BFB
:1030C000A69517940794202531254A2758F7660FAF
:1030D000771F881F20F026173707480730F4620B48
:1030E000730B840B200D311D411DA09581F7B90193
:1030F000842F9158880F9695879508959B01AC0170
:103100000C94CB170E940E17880B990B08959F3FC4
:1031100031F0915020F4879577956795B795880F92
:10312000911D9695879597F9089591505040660F97
:10313000771F881FD2F70895991B79E004C0991F63
:10314000961708F0961B881F7A95C9F78095089501
:10315000EE0FFF1F0590F491E02D099481E090E0BF
:0A316000F8940C94B318F894FFCF14
:10316A00314E6F646500324E6F646500334E6F6492
:10317A006500344E6F646500354E6F646500364EE7
:10318A006F646500000000002D01F707C500740197
:10319A00F600D400E8000000000088025802B802D5
:1031AA003402FA0144023502583A2000593A200002
:1031BA000D0A006E616E00696E66006F7666000029
:107800000C94343C0C94513C0C94513C0C94513CE1
:107810000C94513C0C94513C0C94513C0C94513CB4
:107820000C94513C0C94513C0C94513C0C94513CA4
:107830000C94513C0C94513C0C94513C0C94513C94
:107840000C94513C0C94513C0C94513C0C94513C84
:107850000C94513C0C94513C0C94513C0C94513C74
:107860000C94513C0C94513C11241FBECFEFD8E036
:10787000DEBFCDBF11E0A0E0B1E0ECE9FFE702C060
:1078800005900D92A230B107D9F712E0A2E0B1E065
:1078900001C01D92AD30B107E1F70E942D3D0C945F
:1078A000CC3F0C94003C982F959595959595959582
:1078B000905D8F708A307CF0282F295A8091C0000B
:1078C00085FFFCCF9093C6008091C00085FFFCCF60
:1078D0002093C6000895282F205DF0CF982F809127
:1078E000C00085FFFCCF9093C6000895EF92FF92F1
:1078F0000F931F93EE24FF2487018091C00087FD22
:1079000017C00894E11CF11C011D111D81E4E8164B
:1079100082E4F8068FE0080780E0180770F3E09132
:107920000401F091050109958091C00087FFE9CF1E
:107930008091C6001F910F91FF90EF9008950E94D3
:10794000763C982F8091C00085FFFCCF9093C600B5
:1079500091362CF490330CF09053892F089597555D
:10796000892F08951F930E949F3C182F0E949F3CCF
:107970001295107F810F1F9108951F93182F882350
:1079800021F00E94763C1150E1F71F9108951F935A
:10799000182F0E94763C803249F0809103018F5F5E
:1079A000809303018530C1F01F9108958091C0003C
:1079B00085FFFCCF84E18093C6008091C00085FFE5
:1079C000FCCF1093C6008091C00085FFFCCF80E102
:1079D0008093C6001F910895E0910401F091050184
:1079E00009951F9108950E94763C803241F0809164
:1079F00003018F5F80930301853081F008958091AA
:107A0000C00085FFFCCF84E18093C6008091C00058
:107A100085FFFCCF80E18093C6000895E0910401CA
:107A2000F09105010995089540E951E08823A1F0FE
:107A30002D9A28EE33E0FA013197F1F721503040CA
:107A4000D1F72D9828EE33E0FA013197F1F7215064
:107A50003040D1F7815061F708953F924F925F9285
:107A60006F927F928F929F92AF92BF92CF92DF924E
:107A7000EF92FF920F931F93CF93DF93000080E16B
:107A80008093C4001092C50088E18093C10086E015
:107A90008093C2005098589A259A81E00E94143D24
:107AA00024E1F22E9EE1E92E85E9D82E0FE0C02ECA
:107AB00010E1B12EAA24A394B1E49B2EA6E58A2E50
:107AC000F2E57F2EE0E26E2E79E4572E63E5462E36
:107AD00050E5352E0E94763C8033B1F18133B9F107
:107AE000803409F46FC0813409F476C0823409F41B
:107AF00085C0853409F488C0803531F1823521F1A3
:107B0000813511F1853509F485C0863509F48DC0BC
:107B1000843609F496C0843709F403C1853709F423
:107B200072C1863709F466C0809103018F5F80932C
:107B30000301853079F6E0910401F0910501099582
:107B40000E94763C803351F60E94F33CC3CF0E94E2
:107B5000763C803249F78091C00085FFFCCFF092DF
:107B6000C6008091C00085FFFCCF9092C600809136
:107B7000C00085FFFCCF8092C6008091C00085FFC9
:107B8000FCCF7092C6008091C00085FFFCCF609250
:107B9000C6008091C00085FFFCCF5092C600809146
:107BA000C00085FFFCCF4092C6008091C00085FFD9
:107BB000FCCF3092C6008091C00085FFFCCFB09210
:107BC000C60088CF0E94763C863808F4BDCF0E945C
:107BD000763C0E94F33C7ECF0E94763C803809F4CC
:107BE0009CC0813809F40BC1823809F43CC1883942
:107BF00009F48FC080E00E94C73C6CCF84E10E94F2
:107C0000BD3C0E94F33C66CF85E00E94BD3C0E94D3
:107C1000F33C60CF0E94763C809306010E94763C44
:107C2000809307010E94F33C55CF0E94763C80333D
:107C300009F41DC183E00E94BD3C80E00E94C73C66
:107C400049CF0E94763C809309020E94763C809343
:107C5000080280910C028E7F80930C020E94763C79
:107C6000853409F415C18091080290910902892B8D
:107C700089F000E010E00E94763CF801E85FFE4FDA
:107C800080830F5F1F4F80910802909109020817AF
:107C9000190788F30E94763C803209F045CF809125
:107CA0000C0280FF01C16091060170910701660F0F
:107CB000771F7093070160930601A0910802B091AD
:107CC00009021097C9F0E8E0F1E09B01AD014E0F09
:107CD0005F1FF999FECF32BD21BD819180BDFA9A17
:107CE000F99A2F5F3F4FE417F50799F76A0F7B1F4B
:107CF00070930701609306018091C00085FFFCCF5F
:107D0000F092C6008091C00085FFFCCFB092C60003
:107D1000E1CE83E00E94C73CDDCE82E00E94C73CFA
:107D2000D9CE0E94763C809309020E94763C8093D3
:107D300008028091060190910701880F991F909386
:107D40000701809306010E94763C853409F4A6C0A1
:107D500080910C028E7F80930C020E94763C8032D0
:107D600009F0B8CE8091C00085FFFCCFF092C6002C
:107D7000609108027091090261157105B9F140E046
:107D800050E080910C02A82FA170B82FB27011C0E2
:107D9000BB2309F45CC0E0910601F0910701319624
:107DA000F0930701E09306014F5F5F4F46175707B7
:107DB000E8F4AA2369F3F999FECF209106013091E6
:107DC000070132BD21BDF89A90B58091C00085FFB2
:107DD000FCCF9093C6002F5F3F4F30930701209355
:107DE00006014F5F5F4F4617570718F38091C00099
:107DF00085FDE5CE8091C00085FFF8CFE0CE81E023
:107E00000E94C73C67CE0E94763C803209F08CCE3F
:107E10008091C00085FFFCCFF092C6008091C00029
:107E200085FFFCCFE092C6008091C00085FFFCCFAB
:107E3000D092C6008091C00085FFFCCFC092C600E2
:107E40008091C00085FFFCCFB092C60043CEE09188
:107E50000601F091070194918091C00085FFFCCF4D
:107E60009093C6009CCF80E10E94C73C33CE0E9415
:107E7000763C0E94763C182F0E94763C112309F430
:107E800083C0113009F484C08FE00E94C73C22CE29
:107E900080910C02816080930C02E5CE80910C02EF
:107EA000816080930C0259CF809107018823880F4D
:107EB000880B8A2180930B02809106019091070123
:107EC000880F991F90930701809306018091080203
:107ED00080FF09C080910802909109020196909359
:107EE000090280930802F894F999FECF1127E091D6
:107EF0000601F0910701C8E0D1E08091080290915D
:107F00000902103091F40091570001700130D9F34B
:107F100003E000935700E89500915700017001308D
:107F2000D9F301E100935700E89509901990009169
:107F3000570001700130D9F301E000935700E89534
:107F40001395103498F011270091570001700130FB
:107F5000D9F305E000935700E895009157000170B0
:107F60000130D9F301E100935700E895329602976A
:107F700009F0C7CF103011F00296E5CF112480919F
:107F8000C00085FFB9CEBCCE8EE10E94C73CA2CD19
:0C7F900085E90E94C73C9ECDF894FFCF0D
:027F9C00800063
:040000030000780081
:00000001FF