:100000000C9466000C948E000C948E000C948E0060
:100010000C948E000C948E000C948E000C948E0028
:100020000C948E000C948E000C948E000C948F0413
:100030000C948E000C948E000C948E000C948E0008
:100040000C9445040C948E000C9413040C94ED0352
:100050000C948E000C948E000C948E000C948E00E8
:100060000C948E000C948E00000000080002010029
:10007000000304070000000000000000000102036C
:1000800004051112131415160A0B0C0D0E0F0000A7
:100090000000250028002B0000000000240027009D
:1000A0002A000404040404040404020202020202FA
:1000B000030303030303010204081020408001022C
:1000C00004081020010204081020500511241FBE4E
:1000D000CFEFD8E0DEBFCDBF11E0A0E0B1E0E8ECAB
:1000E000F3E102C005900D92AC35B107D9F722E0DB
:1000F000ACE5B1E001C01D92A738B207E1F710E00E
:10010000C6E6D0E004C02197FE010E94D709C5369B
:10011000D107C9F70E94DE050C94E2090C94000097
:10012000EFE6F1E0A089B18982E08C93A485B585E2
:100130001C92A685B7858FEC8C93108EA489B58907
:1001400086E08C93A289B3898C9180618C93A2897B
:10015000B3898C9188608C93A289B3898C918068D3
:100160008C930288F389E02D80818F7D80830895B0
:10017000AC01909179029C3090F580917A0228E848
:1001800030E0281B310987FD3395220F331F220FE2
:10019000331F4217530784F080917B0228E532E039
:1001A000281B310987FD3395220F331F220F331F80
:1001B000421753070CF49A0122503109220F331FC2
:1001C0004FB7F894892F90E0FC01EE0FFF1F8E0FC0
:1001D0009F1FFC01EC5AFD4F328321834FBF0895CE
:1001E00090E0FC01EA54FF4F2491FC01EE55FF4FD3
:1001F0008491882399F090E0880F991FFC01E856BC
:10020000FF4FA591B491FC01E257FF4F8591949166
:100210008FB7F894EC91E22BEC938FBF0895CF92B7
:10022000DF92EF92FF920F931F93CF93DF936C01B6
:100230007A018B01C0E0D0E0CE15DF0589F0D8014E
:100240006D918D01D601ED91FC910190F081E02D31
:10025000C6010995892B11F47E0102C02196ECCFCD
:10026000C701DF91CF911F910F91FF90EF90DF9029
:10027000CF900895089580E090E00895FC01538D9B
:10028000448D252F30E0842F90E0821B930B541770
:1002900010F0CF96089501970895FC01918D828DFD
:1002A000981761F0828DDF01A80FB11D5D968C91CA
:1002B000928D9F5F9F73928F90E008958FEF9FEFD5
:1002C0000895FC01918D828D981731F0828DE80F91
:1002D000F11D858D90E008958FEF9FEF0895FC014B
:1002E000918D228D892F90E0805C9F4F821B910918
:1002F0008F73992708958FE691E00E946F0121E0A6
:10030000892B09F420E0822F0895FC01848DDF0100
:10031000A80FB11DA35ABF4F2C91848D90E0019678
:100320008F739927848FA689B7892C93A089B18967
:100330008C9180648C93938D848D981306C0028871
:10034000F389E02D80818F7D80830895EF92FF9265
:100350000F931F93CF93DF93EC0181E0888F9B8DE8
:100360008C8D981305C0E889F989808185FD24C0AA
:10037000F62E0B8D10E00F5F1F4F0F731127E02E2D
:100380008C8DE8120CC00FB607FCFACFE889F9890A
:10039000808185FFF5CFCE010E948501F1CF8B8D45
:1003A000FE01E80FF11DE35AFF4FF0820B8FEA893F
:1003B000FB898081806207C0EE89FF896083E889BC
:1003C000F98980818064808381E090E0DF91CF9122
:1003D0001F910F91FF90EF900895CF93DF93EC0161
:1003E000888D8823C9F0EA89FB89808185FD05C055
:1003F000A889B9898C9186FD0FC00FB607FCF5CF8F
:10040000808185FFF2CFA889B9898C9185FFEDCFD6
:10041000CE010E948501E7CFDF91CF91089580E062
:1004200090E0892B29F00E947B0181110C9400003F
:10043000089590E0FC01E859FF4F3491FC01EA5423
:10044000FF4F2491FC01EE55FF4FE491EE2309F498
:100450003BC0332339F1333091F038F43130A9F017
:10046000323001F584B58F7D12C0373091F03830CD
:10047000A1F03430B9F4809180008F7D03C0809169
:1004800080008F77809380000DC084B58F7784BD06
:1004900009C08091B0008F7703C08091B0008F7D3C
:1004A0008093B000F0E0EE0FFF1FE257FF4FA591E1
:1004B000B4918FB7F894EC91611103C020952E236D
:1004C00001C02E2B2C938FBF08953FB7F8948091D5
:1004D000620190916301A0916401B091650126B51C
:1004E000A89B05C02F3F19F00196A11DB11D3FBF6C
:1004F000BA2FA92F982F8827820F911DA11DB11DFA
:10050000BC01CD0142E0660F771F881F991F4A95F5
:10051000D1F708958F929F92AF92BF92CF92DF92C0
:10052000EF92FF926B017C010E9465024B015C011E
:10053000C114D104E104F104F1F00E946502DC0170
:10054000CB0188199909AA09BB09883E9340A105E6
:10055000B10570F321E0C21AD108E108F10888EE74
:10056000880E83E0981EA11CB11CC114D104E104C3
:10057000F10419F7DDCFFF90EF90DF90CF90BF909F
:10058000AF909F908F9008952FB7F89460915E017F
:1005900070915F0180916001909161012FBF08957A
:1005A0008EBD00000DB407FEFDCF8EB508959CB53D
:1005B0009F7D9CBD9CB5937F9CBD9CB59C7F9CBD45
:1005C0009DB591609DBD682F80917D020C941902AC
:1005D000CF93C82F80E00E94D7028C2F0E94D002B8
:1005E000C82F81E00E94D7028C2FCF910895EF92FF
:1005F000FF920F931F93CF93DF9300D0CDB7DEB759
:10060000082F162F80E049837A830E94D702802F1B
:100610008F7180620E94D002082FE12E7A81F72E1E
:100620004981140F1E1531F0F70181917F010E945D
:10063000D002F8CF81E00E94D702802F0F900F9058
:10064000DF91CF911F910F91FF90EF9008951F932D
:10065000CF93DF931F92CDB7DEB7182F80E0698369
:100660000E94D702812F8F7180620E94D002182FC2
:100670006981862F0E94D00281E00E94D702812FDB
:100680000F90DF91CF911F910895CF93C82F80E0F5
:100690000E94D7028C2F8F710E94D0028FEF0E9490
:1006A000D002C82F81E00E94D7028C2FCF910895ED
:1006B00080E00E94450381FD0EC080E00E9445035A
:1006C000682F626080E00E94270365E070E080E0B0
:1006D00090E00C948A0208950F931F93CF938C019E
:1006E00086E00E944503C82FC77D0230110511F432
:1006F000C06204C00130110509F4C8606C2F86E0A7
:100700000E94270386E00E94450391E08C1390E04D
:10071000892FCF911F910F9108950E94DD096115D6
:10072000710579F0FB0101900020E9F73197AF01E5
:10073000461B570BDC01ED91FC910280F381E02D0B
:10074000099480E090E008954F925F926F927F92BB
:10075000EF92FF920F931F93CF93DF93CDB7DEB746
:10076000A1970FB6F894DEBF0FBECDBF7C01FA0192
:10077000CB0119A2223008F42AE08E010F5D1F4F31
:10078000422E512C612C712CBF01A30192010E94B9
:100790007409F901CA01015011096A3014F4605D4D
:1007A00001C0695CD8016C93232B242B252B61F7A6
:1007B000B801C7010E948F03A1960FB6F894DEBF5F
:1007C0000FBECDBFDF91CF911F910F91FF90EF90A2
:1007D0007F906F905F904F9008951F920F920FB689
:1007E0000F9211242F933F934F935F936F937F93B7
:1007F0008F939F93AF93BF93EF93FF938FE691E017
:100800000E948501FF91EF91BF91AF919F918F91D0
:100810007F916F915F914F913F912F910F900FBEFC
:100820000F901F9018951F920F920FB60F921124E0
:100830002F938F939F93EF93FF93E0917F01F0911C
:1008400080018081E0918501F091860182FD12C0D6
:100850009081809188018F5F8F7320918901821729
:1008600051F0E0918801F0E0E159FE4F958F8093BF
:10087000880101C08081FF91EF919F918F912F910D
:100880000F900FBE0F901F9018951F920F920FB6EA
:100890000F9211242F933F938F939F93AF93BF9306
:1008A00080915E0190915F01A0916001B091610122
:1008B00030915D0123E0230F2D3720F40196A11D17
:1008C000B11D05C026E8230F0296A11DB11D20937E
:1008D0005D0180935E0190935F01A0936001B093EE
:1008E00061018091620190916301A0916401B091D6
:1008F00065010196A11DB11D809362019093630172
:10090000A0936401B0936501BF91AF919F918F91C6
:100910003F912F910F900FBE0F901F9018951F922F
:100920000F920FB60F9211242F933F934F935F9323
:100930006F937F938F939F93AF93BF93EF93FF93A7
:1009400080915C0187FF05C01092850010928400A1
:100950001BC020915C01022E000C330B80917802A9
:1009600090E02817390784F480915C01082E000C70
:10097000990BFC01EE0FFF1F8E0F9F1FFC01EC5A1D
:10098000FD4F808186FD15C080915C018F5F809353
:100990005C0120915C01022E000C330B80917802E7
:1009A00090E028173907C4F480915C018C3064F121
:1009B00013C080915C01082E000C990BFC01EE0F16
:1009C000FF1F8E0F9F1FFC01EC5AFD4F808160E0DE
:1009D0008F730E941902D8CF809184009091850076
:1009E000049680349C4918F480E49CE905C0809109
:1009F00084009091850004969093890080938800EC
:100A00008FEF80935C013BC0209184003091850082
:100A100080915C01082E000C990BFC01EE0FFF1F6A
:100A20008E0F9F1FFC01EC5AFD4F81819281820F36
:100A3000931F909389008093880080915C01082E19
:100A4000000C990BFC01EE0FFF1F8E0F9F1FFC0186
:100A5000EC5AFD4F808186FF12C080915C01082E08
:100A6000000C990BFC01EE0FFF1F8E0F9F1FFC0166
:100A7000EC5AFD4F808161E08F730E941902FF9153
:100A8000EF91BF91AF919F918F917F916F915F9106
:100A90004F913F912F910F900FBE0F901F9018957F
:100AA000109272011092710188EE93E0A0E0B0E024
:100AB0008093730190937401A0937501B0937601B4
:100AC00088E291E09093700180936F0185EC90E053
:100AD00090937C0180937B0184EC90E090937E0165
:100AE00080937D0180EC90E09093800180937F0162
:100AF00081EC90E0909382018093810182EC90E000
:100B0000909384018093830186EC90E0909386011A
:100B100080938501109288011092890110928A01B8
:100B200010928B0110921202109213021092140272
:100B300010921502109216021092170210921802CB
:100B40001092190210921A0210921B0210921C02AB
:100B500010921D0210921E0210921F02109220028B
:100B60001092210289E080937C028AE080937D02CA
:100B700010927E0280E280937F021092800285E0D4
:100B800080938602809178028C30A0F491E0980FD7
:100B9000909378028093790290E0FC01EE0FFF1FA2
:100BA0008E0F9F1FFC01EC5AFD4F88EB9BE0928358
:100BB000818308958FEF809379020895CF93DF9317
:100BC000CDB7DEB760970FB6F894DEBF0FBECDBFCE
:100BD000789484B5826084BD84B5816084BD85B518
:100BE000826085BD85B5816085BD80916E00816024
:100BF00080936E00109281008091810082608093CA
:100C000081008091810081608093810080918000CB
:100C10008160809380008091B10084608093B100F6
:100C20008091B00081608093B00080917A008460F0
:100C300080937A0080917A00826080937A0080911C
:100C40007A00816080937A0080917A008068809336
:100C50007A001092C100109250021092510210922C
:100C600052021092530210920E0210920F02109232
:100C70001002109211020E94C4026B017C014B0110
:100C80005C0128EB820E2BE0921EA11CB11C0E947D
:100C9000C4026C157D058E059F0528F08616970603
:100CA000A806B906A0F78FE691E090934F028093D3
:100CB0004E020E9490000E94C40260930E02709344
:100CC0000F02809310029093110266E371E080910D
:100CD0004E0290914F020E948F030E94C4026B014A
:100CE0007C014B015C013AE0830E911CA11CB11CFC
:100CF0000E94C4026C157D058E059F0528F086169E
:100D00009706A806B906A0F781E0809322020E9408
:100D1000900080917C020E94F00080917D020E94F0
:100D2000F0001FB7F89480916601811124C0ECEAAD
:100D3000F0E08491E0ECF0E09491E82FF0E0EE0F29
:100D4000FF1FE856FF4FA591B491EC91E92321F4E0
:100D500061E08AE00E9419028AE00E94F0008CB5EE
:100D600080618CBD8CB580648CBD8DE00E94F000EC
:100D70008BE00E94F000809166018F5F8093660196
:100D80001FBF60E080917C020E94190281E00E94F6
:100D9000D70265E070E080E090E00E948A026FE593
:100DA00084E00E94270382E090E00E946C03882385
:100DB00019F081E080937E0280E090E00E946C0355
:100DC00080E00E944503682F6C6080E00E9427034A
:100DD00060E787E00E9427036CE485E00E94270318
:100DE00082EE0E94E80281EE0E94E8020E9458030F
:100DF00080E00E944503682F6E7F80E00E942703F9
:100E00006FE381E00E9427036FE084E00E942703E4
:100E100080E00E94D70280E50E94D00283E70E9412
:100E2000D00281E00E94D7028DE10E944503682F25
:100E300066608DE10E9427038CE10E944503682FC4
:100E400063608CE10E94270381E08093800280E24E
:100E500080937F02E9E8F0E084914091860260E0AF
:100E600071E00E94F702E3E8F0E0849160917F0274
:100E70000E94270382E00E944503EDE7F0E0E49141
:100E800061E070E001C0660FEA95EAF7682B82E046
:100E90000E94270360E685E00E94270386E00E9407
:100EA0004503682F676086E00E94270382E090E098
:100EB0000E946C030E9458030E94580380E00E9425
:100EC0004503682F616080E00E94270360E787E0A8
:100ED0000E94270380918102882339F04091860285
:100EE00061E872E08AE00E94F70281EE0E94E80267
:100EF00061E080917C020E941902809179028C301D
:100F000008F050C082E00E94F00080917902E82F42
:100F1000F0E09F01220F331FE20FF31FEC5AFD4F49
:100F20009081907C9260908310927A0210927B0262
:100F30006CE00E94C4094CE0849FB001112440E0A1
:100F400050E09A01260F371FF901EE0FFF1F2E0FF9
:100F50003F1FF901EC5AFD4F908196FD16C04F5F7F
:100F60005F4F4C30510569F781110FC0109280001E
:100F700082E0809381001092850010928400B19AE3
:100F800080916F00826080936F00E0917902F0E0C1
:100F9000CF01880F991FE80FF91FEC5AFD4F808190
:100FA000806480838CEF98E00E94B80060ED77E069
:100FB00080E090E00E948A0280E293E00E94B80004
:100FC00068E97AE380E090E00E948A0284EF882E4C
:100FD00099249394A12CB12C00E244244A9493E0E8
:100FE000592E612C712C0E94C402672B682B692B2F
:100FF00041F40E94C402623071058105910508F434
:101000001BC10E94C40260936B0170936C018093BA
:101010006D0190936E01C0906701D0906801E090DF
:101020006901F0906A016C157D058E059F0540F4FD
:1010300060936701709368018093690190936A01DE
:10104000C0906701D0906801E0906901F0906A015A
:101050009B01AC012C193D094E095F0969017A0118
:101060003AEFC316D104E104F10408F4E5C060933B
:101070006701709368018093690190936A0180927F
:101080001A0290921B02A0921C02B0921D021092B2
:101090001E0210921F0210922002109221028091D3
:1010A000120290911302A0911402B0911502809344
:1010B000160290931702A0931802B09319020E948F
:1010C000C4026093120270931302809314029093EF
:1010D00015020E94C40260930E0270930F02809367
:1010E0001002909311020E94C4026B017C0168E41B
:1010F00071E080914E0290914F020E948F032AE08E
:1011000041E050E060E070E080914E0290914F022B
:101110000E94A4036FE471E080914E0290914F020F
:101120000E948F032AE0B701A60180914E029091A0
:101130004F020E94A40361E571E080914E029091FC
:101140004F020E948F038091120290911302A0918E
:101150001402B0911502B701A601481B590B6A0B86
:101160007B0B2AE080914E0290914F020E94A403D3
:1011700061E571E080914E0290914F020E948F03D1
:101180004091120250911302609114027091150265
:101190008091160290911702A0911802B091190245
:1011A000481B590B6A0B7B0B2AE080914E029091F1
:1011B0004F020E94A40363E571E080914E0290917A
:1011C0004F020E948F030E94C402AB01BC012AE0BF
:1011D00080914E0290914F020E94A403E0904E0233
:1011E000F0904F0265E571E0C7010E948F0365E44E
:1011F00071E0C7010E948F030E94C4026B017C0151
:101200009B01AC012B5F3F4F4F4F5F4F2D873E87B8
:101210004F87588B0E94C4026C157D058E059F0573
:1012200008F057C00E94C402609312027093130228
:10123000809314029093150287E10E94450380FD7C
:1012400045C08FEF0E94E80210917F021C3008F029
:101250001CE080918002811103C0D02ED11A01C000
:10126000D12C80E00E94D70281E60E94D002AE011C
:101270004F5F5F4F7A01115038F08FEF0E94D0021C
:10128000D7018D937D01F7CFDA94BFEFDB1621F004
:101290008FEF0E94D002F8CF81E00E94D70260E772
:1012A00087E00E942703A981BA812CED35E00E94D6
:1012B000D009A30192010E949609DA01C901805E5A
:1012C0009C4FAF4FBF4F0E94B800B6CF0E940F0295
:1012D0008ACE2D853E854F855889261737074807C2
:1012E000590708F097CF9ECFA1E21A2EAA1BBB1B6D
:1012F000FD010DC0AA1FBB1FEE1FFF1FA217B307E2
:10130000E407F50720F0A21BB30BE40BF50B661FF7
:10131000771F881F991F1A9469F7609570958095BB
:1013200090959B01AC01BD01CF010895052E97FB5F
:101330001EF400940E94AD0957FD07D00E94740965
:1013400007FC03D04EF40C94AD09509540953095B0
:1013500021953F4F4F4F5F4F089590958095709521
:1013600061957F4F8F4F9F4F0895A29FB001B39F0C
:10137000C001A39F700D811D1124911DB29F700D9E
:10138000811D1124911D0895991B79E004C0991FB6
:10139000961708F0961B881F7A95C9F780950895CF
:1013A0000E94B509B7FF0895821B930B0895EE0FB5
:1013B000FF1F0590F491E02D099481E090E0F894EE
:0813C0000C94E209F894FFCF40
:1013C800314E6F646500324E6F646500334E6F6452
:1013D8006500344E6F646500354E6F646500364EA7
:1013E8006F64650000000000A6010F013E01ED01D9
:1013F8006F014D016101564D4450565F317C315F9C
:10140800564D4450560D0A00564D4450455F003A1B
:0C141800323A007C005F564D4450450005
:107800000C94343C0C94513C0C94513C0C94513CE1
:107810000C94513C0C94513C0C94513C0C94513CB4
:107820000C94513C0C94513C0C94513C0C94513CA4
:107830000C94513C0C94513C0C94513C0C94513C94
:107840000C94513C0C94513C0C94513C0C94513C84
:107850000C94513C0C94513C0C94513C0C94513C74
:107860000C94513C0C94513C11241FBECFEFD8E036
:10787000DEBFCDBF11E0A0E0B1E0ECE9FFE702C060
:1078800005900D92A230B107D9F712E0A2E0B1E065
:1078900001C01D92AD30B107E1F70E942D3D0C945F
:1078A000CC3F0C94003C982F959595959595959582
:1078B000905D8F708A307CF0282F295A8091C0000B
:1078C00085FFFCCF9093C6008091C00085FFFCCF60
:1078D0002093C6000895282F205DF0CF982F809127
:1078E000C00085FFFCCF9093C6000895EF92FF92F1
:1078F0000F931F93EE24FF2487018091C00087FD22
:1079000017C00894E11CF11C011D111D81E4E8164B
:1079100082E4F8068FE0080780E0180770F3E09132
:107920000401F091050109958091C00087FFE9CF1E
:107930008091C6001F910F91FF90EF9008950E94D3
:10794000763C982F8091C00085FFFCCF9093C600B5
:1079500091362CF490330CF09053892F089597555D
:10796000892F08951F930E949F3C182F0E949F3CCF
:107970001295107F810F1F9108951F93182F882350
:1079800021F00E94763C1150E1F71F9108951F935A
:10799000182F0E94763C803249F0809103018F5F5E
:1079A000809303018530C1F01F9108958091C0003C
:1079B00085FFFCCF84E18093C6008091C00085FFE5
:1079C000FCCF1093C6008091C00085FFFCCF80E102
:1079D0008093C6001F910895E0910401F091050184
:1079E00009951F9108950E94763C803241F0809164
:1079F00003018F5F80930301853081F008958091AA
:107A0000C00085FFFCCF84E18093C6008091C00058
:107A100085FFFCCF80E18093C6000895E0910401CA
:107A2000F09105010995089540E951E08823A1F0FE
:107A30002D9A28EE33E0FA013197F1F721503040CA
:107A4000D1F72D9828EE33E0FA013197F1F7215064
:107A50003040D1F7815061F708953F924F925F9285
:107A60006F927F928F929F92AF92BF92CF92DF924E
:107A7000EF92FF920F931F93CF93DF93000080E16B
:107A80008093C4001092C50088E18093C10086E015
:107A90008093C2005098589A259A81E00E94143D24
:107AA00024E1F22E9EE1E92E85E9D82E0FE0C02ECA
:107AB00010E1B12EAA24A394B1E49B2EA6E58A2E50
:107AC000F2E57F2EE0E26E2E79E4572E63E5462E36
:107AD00050E5352E0E94763C8033B1F18133B9F107
:107AE000803409F46FC0813409F476C0823409F41B
:107AF00085C0853409F488C0803531F1823521F1A3
:107B0000813511F1853509F485C0863509F48DC0BC
:107B1000843609F496C0843709F403C1853709F423
:107B200072C1863709F466C0809103018F5F80932C
:107B30000301853079F6E0910401F0910501099582
:107B40000E94763C803351F60E94F33CC3CF0E94E2
:107B5000763C803249F78091C00085FFFCCFF092DF
:107B6000C6008091C00085FFFCCF9092C600809136
:107B7000C00085FFFCCF8092C6008091C00085FFC9
:107B8000FCCF7092C6008091C00085FFFCCF609250
:107B9000C6008091C00085FFFCCF5092C600809146
:107BA000C00085FFFCCF4092C6008091C00085FFD9
:107BB000FCCF3092C6008091C00085FFFCCFB09210
:107BC000C60088CF0E94763C863808F4BDCF0E945C
:107BD000763C0E94F33C7ECF0E94763C803809F4CC
:107BE0009CC0813809F40BC1823809F43CC1883942
:107BF00009F48FC080E00E94C73C6CCF84E10E94F2
:107C0000BD3C0E94F33C66CF85E00E94BD3C0E94D3
:107C1000F33C60CF0E94763C809306010E94763C44
:107C2000809307010E94F33C55CF0E94763C80333D
:107C300009F41DC183E00E94BD3C80E00E94C73C66
:107C400049CF0E94763C809309020E94763C809343
:107C5000080280910C028E7F80930C020E94763C79
:107C6000853409F415C18091080290910902892B8D
:107C700089F000E010E00E94763CF801E85FFE4FDA
:107C800080830F5F1F4F80910802909109020817AF
:107C9000190788F30E94763C803209F045CF809125
:107CA0000C0280FF01C16091060170910701660F0F
:107CB000771F7093070160930601A0910802B091AD
:107CC00009021097C9F0E8E0F1E09B01AD014E0F09
:107CD0005F1FF999FECF32BD21BD819180BDFA9A17
:107CE000F99A2F5F3F4FE417F50799F76A0F7B1F4B
:107CF00070930701609306018091C00085FFFCCF5F
:107D0000F092C6008091C00085FFFCCFB092C60003
:107D1000E1CE83E00E94C73CDDCE82E00E94C73CFA
:107D2000D9CE0E94763C809309020E94763C8093D3
:107D300008028091060190910701880F991F909386
:107D40000701809306010E94763C853409F4A6C0A1
:107D500080910C028E7F80930C020E94763C8032D0
:107D600009F0B8CE8091C00085FFFCCFF092C6002C
:107D7000609108027091090261157105B9F140E046
:107D800050E080910C02A82FA170B82FB27011C0E2
:107D9000BB2309F45CC0E0910601F0910701319624
:107DA000F0930701E09306014F5F5F4F46175707B7
:107DB000E8F4AA2369F3F999FECF209106013091E6
:107DC000070132BD21BDF89A90B58091C00085FFB2
:107DD000FCCF9093C6002F5F3F4F30930701209355
:107DE00006014F5F5F4F4617570718F38091C00099
:107DF00085FDE5CE8091C00085FFF8CFE0CE81E023
:107E00000E94C73C67CE0E94763C803209F08CCE3F
:107E10008091C00085FFFCCFF092C6008091C00029
:107E200085FFFCCFE092C6008091C00085FFFCCFAB
:107E3000D092C6008091C00085FFFCCFC092C600E2
:107E40008091C00085FFFCCFB092C60043CEE09188
:107E50000601F091070194918091C00085FFFCCF4D
:107E60009093C6009CCF80E10E94C73C33CE0E9415
:107E7000763C0E94763C182F0E94763C112309F430
:107E800083C0113009F484C08FE00E94C73C22CE29
:107E900080910C02816080930C02E5CE80910C02EF
:107EA000816080930C0259CF809107018823880F4D
:107EB000880B8A2180930B02809106019091070123
:107EC000880F991F90930701809306018091080203
:107ED00080FF09C080910802909109020196909359
:107EE000090280930802F894F999FECF1127E091D6
:107EF0000601F0910701C8E0D1E08091080290915D
:107F00000902103091F40091570001700130D9F34B
:107F100003E000935700E89500915700017001308D
:107F2000D9F301E100935700E89509901990009169
:107F3000570001700130D9F301E000935700E89534
:107F40001395103498F011270091570001700130FB
:107F5000D9F305E000935700E895009157000170B0
:107F60000130D9F301E100935700E895329602976A
:107F700009F0C7CF103011F00296E5CF112480919F
:107F8000C00085FFB9CEBCCE8EE10E94C73CA2CD19
:0C7F900085E90E94C73C9ECDF894FFCF0D
:027F9C00800063
:040000030000780081
:00000001FF